{
  "_format": "hh-sol-artifact-1",
  "contractName": "PicassoReferal",
  "sourceName": "contracts/PicassoReferal.sol",
  "abi": [
    {
      "inputs": [],
      "stateMutability": "nonpayable",
      "type": "constructor"
    },
    {
      "inputs": [
        {
          "internalType": "string",
          "name": "referalCode",
          "type": "string"
        },
        {
          "internalType": "string",
          "name": "influencerName",
          "type": "string"
        },
        {
          "internalType": "address",
          "name": "influencerAddress",
          "type": "address"
        }
      ],
      "name": "createInfluencer",
      "outputs": [],
      "stateMutability": "nonpayable",
      "type": "function"
    },
    {
      "inputs": [
        {
          "internalType": "string",
          "name": "referalCode",
          "type": "string"
        }
      ],
      "name": "enableRefereals",
      "outputs": [],
      "stateMutability": "nonpayable",
      "type": "function"
    },
    {
      "inputs": [
        {
          "internalType": "address",
          "name": "",
          "type": "address"
        }
      ],
      "name": "feeReceipients",
      "outputs": [
        {
          "internalType": "address",
          "name": "",
          "type": "address"
        }
      ],
      "stateMutability": "view",
      "type": "function"
    },
    {
      "inputs": [
        {
          "internalType": "address",
          "name": "userAddress",
          "type": "address"
        }
      ],
      "name": "getFeeRecepient",
      "outputs": [
        {
          "internalType": "address",
          "name": "",
          "type": "address"
        }
      ],
      "stateMutability": "view",
      "type": "function"
    },
    {
      "inputs": [
        {
          "internalType": "string",
          "name": "referalCode",
          "type": "string"
        }
      ],
      "name": "getInfluencerName",
      "outputs": [
        {
          "internalType": "string",
          "name": "",
          "type": "string"
        }
      ],
      "stateMutability": "view",
      "type": "function"
    },
    {
      "inputs": [],
      "name": "picassoadmin",
      "outputs": [
        {
          "internalType": "address",
          "name": "",
          "type": "address"
        }
      ],
      "stateMutability": "view",
      "type": "function"
    },
    {
      "inputs": [
        {
          "internalType": "string",
          "name": "referalCode",
          "type": "string"
        },
        {
          "internalType": "address",
          "name": "userAddress",
          "type": "address"
        }
      ],
      "name": "referUser",
      "outputs": [],
      "stateMutability": "nonpayable",
      "type": "function"
    },
    {
      "inputs": [
        {
          "internalType": "string",
          "name": "",
          "type": "string"
        }
      ],
      "name": "referalCodeMapping",
      "outputs": [
        {
          "internalType": "string",
          "name": "name",
          "type": "string"
        },
        {
          "internalType": "bool",
          "name": "referalEnabled",
          "type": "bool"
        },
        {
          "internalType": "address",
          "name": "influencerAddress",
          "type": "address"
        },
        {
          "internalType": "string",
          "name": "referalCode",
          "type": "string"
        }
      ],
      "stateMutability": "view",
      "type": "function"
    }
  ],
  "bytecode": "0x608060405234801561001057600080fd5b50336000806101000a81548173ffffffffffffffffffffffffffffffffffffffff021916908373ffffffffffffffffffffffffffffffffffffffff160217905550611339806100606000396000f3fe608060405234801561001057600080fd5b50600436106100885760003560e01c80636fbfe9451161005b5780636fbfe9451461012a578063a9f273e514610146578063d1031e7c14610162578063fe70c44e1461019257610088565b8063155c6dc31461008d578063275a21ca146100ab5780634cccd8fb146100c75780634f326a2a146100f7575b600080fd5b6100956101c2565b6040516100a29190610f43565b60405180910390f35b6100c560048036038101906100c09190610d04565b6101e6565b005b6100e160048036038101906100dc9190610d04565b6102b0565b6040516100ee9190610f5e565b60405180910390f35b610111600480360381019061010c9190610d04565b610363565b6040516101219493929190610f80565b60405180910390f35b610144600480360381019061013f9190610d45565b6104e6565b005b610160600480360381019061015b9190610d99565b610990565b005b61017c60048036038101906101779190610cdb565b610b1f565b6040516101899190610f43565b60405180910390f35b6101ac60048036038101906101a79190610cdb565b610b52565b6040516101b99190610f43565b60405180910390f35b60008054906101000a900473ffffffffffffffffffffffffffffffffffffffff1681565b60008054906101000a900473ffffffffffffffffffffffffffffffffffffffff1673ffffffffffffffffffffffffffffffffffffffff163373ffffffffffffffffffffffffffffffffffffffff1614610274576040517f08c379a000000000000000000000000000000000000000000000000000000000815260040161026b90610ff3565b60405180910390fd5b600180826040516102859190610f2c565b908152602001604051809103902060010160006101000a81548160ff02191690831515021790555050565b60606001826040516102c29190610f2c565b908152602001604051809103902060000180546102de90611150565b80601f016020809104026020016040519081016040528092919081815260200182805461030a90611150565b80156103575780601f1061032c57610100808354040283529160200191610357565b820191906000526020600020905b81548152906001019060200180831161033a57829003601f168201915b50505050509050919050565b60018180516020810182018051848252602083016020850120818352809550505050505060009150905080600001805461039c90611150565b80601f01602080910402602001604051908101604052809291908181526020018280546103c890611150565b80156104155780601f106103ea57610100808354040283529160200191610415565b820191906000526020600020905b8154815290600101906020018083116103f857829003601f168201915b5050505050908060010160009054906101000a900460ff16908060010160019054906101000a900473ffffffffffffffffffffffffffffffffffffffff169080600201805461046390611150565b80601f016020809104026020016040519081016040528092919081815260200182805461048f90611150565b80156104dc5780601f106104b1576101008083540402835291602001916104dc565b820191906000526020600020905b8154815290600101906020018083116104bf57829003601f168201915b5050505050905084565b60008054906101000a900473ffffffffffffffffffffffffffffffffffffffff1673ffffffffffffffffffffffffffffffffffffffff163373ffffffffffffffffffffffffffffffffffffffff1614610574576040517f08c379a000000000000000000000000000000000000000000000000000000000815260040161056b90610ff3565b60405180910390fd5b81600115156001826040516105899190610f2c565b908152602001604051809103902060010160009054906101000a900460ff161515146105ea576040517f08c379a00000000000000000000000000000000000000000000000000000000081526004016105e190611013565b60405180910390fd5b60008054906101000a900473ffffffffffffffffffffffffffffffffffffffff1673ffffffffffffffffffffffffffffffffffffffff163373ffffffffffffffffffffffffffffffffffffffff1614610678576040517f08c379a000000000000000000000000000000000000000000000000000000000815260040161066f90610fd3565b60405180910390fd5b600073ffffffffffffffffffffffffffffffffffffffff16600260008473ffffffffffffffffffffffffffffffffffffffff1673ffffffffffffffffffffffffffffffffffffffff16815260200190815260200160002060009054906101000a900473ffffffffffffffffffffffffffffffffffffffff1673ffffffffffffffffffffffffffffffffffffffff1614610746576040517f08c379a000000000000000000000000000000000000000000000000000000000815260040161073d90611033565b60405180910390fd5b60006001846040516107589190610f2c565b908152602001604051809103902060405180608001604052908160008201805461078190611150565b80601f01602080910402602001604051908101604052809291908181526020018280546107ad90611150565b80156107fa5780601f106107cf576101008083540402835291602001916107fa565b820191906000526020600020905b8154815290600101906020018083116107dd57829003601f168201915b505050505081526020016001820160009054906101000a900460ff161515151581526020016001820160019054906101000a900473ffffffffffffffffffffffffffffffffffffffff1673ffffffffffffffffffffffffffffffffffffffff1673ffffffffffffffffffffffffffffffffffffffff16815260200160028201805461088490611150565b80601f01602080910402602001604051908101604052809291908181526020018280546108b090611150565b80156108fd5780601f106108d2576101008083540402835291602001916108fd565b820191906000526020600020905b8154815290600101906020018083116108e057829003601f168201915b50505050508152505090508060400151600260008573ffffffffffffffffffffffffffffffffffffffff1673ffffffffffffffffffffffffffffffffffffffff16815260200190815260200160002060006101000a81548173ffffffffffffffffffffffffffffffffffffffff021916908373ffffffffffffffffffffffffffffffffffffffff16021790555050505050565b60008054906101000a900473ffffffffffffffffffffffffffffffffffffffff1673ffffffffffffffffffffffffffffffffffffffff163373ffffffffffffffffffffffffffffffffffffffff1614610a1e576040517f08c379a0000000000000000000000000000000000000000000000000000000008152600401610a1590610ff3565b60405180910390fd5b60405180608001604052808381526020016000151581526020018273ffffffffffffffffffffffffffffffffffffffff16815260200184815250600184604051610a689190610f2c565b90815260200160405180910390206000820151816000019080519060200190610a92929190610bbb565b5060208201518160010160006101000a81548160ff02191690831515021790555060408201518160010160016101000a81548173ffffffffffffffffffffffffffffffffffffffff021916908373ffffffffffffffffffffffffffffffffffffffff1602179055506060820151816002019080519060200190610b16929190610bbb565b50905050505050565b60026020528060005260406000206000915054906101000a900473ffffffffffffffffffffffffffffffffffffffff1681565b6000600260008373ffffffffffffffffffffffffffffffffffffffff1673ffffffffffffffffffffffffffffffffffffffff16815260200190815260200160002060009054906101000a900473ffffffffffffffffffffffffffffffffffffffff169050919050565b828054610bc790611150565b90600052602060002090601f016020900481019282610be95760008555610c30565b82601f10610c0257805160ff1916838001178555610c30565b82800160010185558215610c30579182015b82811115610c2f578251825591602001919060010190610c14565b5b509050610c3d9190610c41565b5090565b5b80821115610c5a576000816000905550600101610c42565b5090565b6000610c71610c6c84611078565b611053565b905082815260208101848484011115610c8957600080fd5b610c9484828561110e565b509392505050565b600081359050610cab816112ec565b92915050565b600082601f830112610cc257600080fd5b8135610cd2848260208601610c5e565b91505092915050565b600060208284031215610ced57600080fd5b6000610cfb84828501610c9c565b91505092915050565b600060208284031215610d1657600080fd5b600082013567ffffffffffffffff811115610d3057600080fd5b610d3c84828501610cb1565b91505092915050565b60008060408385031215610d5857600080fd5b600083013567ffffffffffffffff811115610d7257600080fd5b610d7e85828601610cb1565b9250506020610d8f85828601610c9c565b9150509250929050565b600080600060608486031215610dae57600080fd5b600084013567ffffffffffffffff811115610dc857600080fd5b610dd486828701610cb1565b935050602084013567ffffffffffffffff811115610df157600080fd5b610dfd86828701610cb1565b9250506040610e0e86828701610c9c565b9150509250925092565b610e21816110d0565b82525050565b610e30816110e2565b82525050565b6000610e41826110a9565b610e4b81856110b4565b9350610e5b81856020860161111d565b610e6481611211565b840191505092915050565b6000610e7a826110a9565b610e8481856110c5565b9350610e9481856020860161111d565b80840191505092915050565b6000610ead6026836110b4565b9150610eb882611222565b604082019050919050565b6000610ed0601a836110b4565b9150610edb82611271565b602082019050919050565b6000610ef3601b836110b4565b9150610efe8261129a565b602082019050919050565b6000610f16601c836110b4565b9150610f21826112c3565b602082019050919050565b6000610f388284610e6f565b915081905092915050565b6000602082019050610f586000830184610e18565b92915050565b60006020820190508181036000830152610f788184610e36565b905092915050565b60006080820190508181036000830152610f9a8187610e36565b9050610fa96020830186610e27565b610fb66040830185610e18565b8181036060830152610fc88184610e36565b905095945050505050565b60006020820190508181036000830152610fec81610ea0565b9050919050565b6000602082019050818103600083015261100c81610ec3565b9050919050565b6000602082019050818103600083015261102c81610ee6565b9050919050565b6000602082019050818103600083015261104c81610f09565b9050919050565b600061105d61106e565b90506110698282611182565b919050565b6000604051905090565b600067ffffffffffffffff821115611093576110926111e2565b5b61109c82611211565b9050602081019050919050565b600081519050919050565b600082825260208201905092915050565b600081905092915050565b60006110db826110ee565b9050919050565b60008115159050919050565b600073ffffffffffffffffffffffffffffffffffffffff82169050919050565b82818337600083830152505050565b60005b8381101561113b578082015181840152602081019050611120565b8381111561114a576000848401525b50505050565b6000600282049050600182168061116857607f821691505b6020821081141561117c5761117b6111b3565b5b50919050565b61118b82611211565b810181811067ffffffffffffffff821117156111aa576111a96111e2565b5b80604052505050565b7f4e487b7100000000000000000000000000000000000000000000000000000000600052602260045260246000fd5b7f4e487b7100000000000000000000000000000000000000000000000000000000600052604160045260246000fd5b6000601f19601f8301169050919050565b7f4f6e6c79207069636173736f61646d696e2063616e2061646420696e666c756560008201527f6e636572732e0000000000000000000000000000000000000000000000000000602082015250565b7f43616c6c6572206973206e6f74207069636173736f61646d696e000000000000600082015250565b7f5265666572616c20636f6465206973206e6f7420456e61626c65640000000000600082015250565b7f546865207573657220697320616c726561647920726566657265642e00000000600082015250565b6112f5816110d0565b811461130057600080fd5b5056fea2646970667358221220a6c5a13d26a245f109081ba404e774b2ec08bf687a992443d43116e95972ec9064736f6c63430008020033",
  "linkReferences": {},
  "deployedLinkReferences": {}
}